S01500004C4544496E6469636174696F6E2E7372656338
S11300000EC04EC178C119C0ABC1A0C116C015C085
S113001014C013C012C011C010C00FC00EC01124F0
S11300201FBECFEDCDBF20E0A0E6B0E001C01D9221
S1130030A837B207E1F79ED13CC3E2CFFF920F93FA
S11300401F93CF93DF932DEB37E346E054E316D2AF
S113005020E030E048EC53E411D278D220936600DB
S113006030936700409368005093690060936A007E
S113007070936B0080936C0090936D00A0E00DD39F
S1130080B1F0ACF0AFEFFDD2A0E007D3D9F71092F6
S11300906600109267001092680010926900109236
S11300A06A0010926B0010926C0010926D00DF9148
S11300B0CF911F910F91FF90089587B3836187BB00
S11300C087B3837F87BB85B7826085BF85B78E7F03
S11300D085BF8BB780648BBFAB9A8BB780628BBFB5
S11300E07894109277001092760008958AB580680B
S11300F08ABD8AB58F7B8ABD8AB580628ABD8AB57E
S11301008F7E8ABD8CB580628CBD8CB58CBD8AB562
S113011083608ABD80B7806480BF8CB580648CBDE9
S113012083B7816083BF83B7897F83BF87B58B7FA4
S113013087BD80B7816080BF80B7817F80BF08950D
S11301408AB58C7F8ABD80B78F7B80BF8CB58F7B4F
S11301508CBD83B7887F83BF80B7807F80BF8AB51B
S11301608F738ABD8AB58F7C8ABD80B78F7C80BF30
S11301708CB58F7C8CBD88B38C7E88BB8FEF82BF9F
S11301808FBD08950F931F932AB52C7F2ABD20B7E6
S11301902F7B20BF2CB52F7B2CBD8C01332717FD63
S11301A03095232F0BBD072F182F292F332727FD19
S11301B03A9509BD68BD8AB583608ABD80B78064FD
S11301C080BF8CB580648CBD1F910F9108958F9270
S11301D09F92AF92BF92CF92DF92EF92FF924B0128
S11301E05C0169017A01ACDFC501B401CBDF7EDFBC
S11301F0C701B60123DFA4DFFF90EF90DF90CF901B
S1130200BF90AF909F908F90089520E030E04AE730
S113021054E46BE077EA84E690E0D9DF80E090E094
S11302200196883E23E09207D9F710926E0010924F
S11302306F00109270001092710010927200109270
S11302407300109274001092750020E030E04AE7C9
S113025054E46BE077EA84E690E0B9DF80E090E074
S11302600196883E23E09207D9F710926E0010920F
S11302706F00109270001092710010927200109230
S113028073001092740010927500089520E030E01D
S11302904AEF54E46BE270E084EE90E098DF089556
S11302A01F920F920FB60F9211242F933F934F93E7
S11302B05F936F937F938F939F93AF93BF93EF93CA
S11302C0FF9320E030E040E85FE36BE270E084EE0F
S11302D090E07DDFFF91EF91BF91AF919F918F915E
S11302E07F916F915F914F913F912F910F900FBE2E
S11302F00F901F9018951F920F920FB60F92112412
S11303002F933F934F935F936F937F938F939F9319
S1130310AF93BF93EF93FF9320E030E040EA50E4C3
S11303206BE077EA84E690E052DFFF91EF91BF91B2
S1130330AF919F918F917F916F915F914F913F9179
S11303402F910F900FBE0F901F9018951F920F9230
S11303500FB60F9211240F900FBE0F901F90189597
S11303601F920F920FB60F9211240F900FBE0F9091
S11303701F901895A2DEA12CB12CC12CD12C01E028
S113038010E0C3E0D0E06894EE24E1F8F12C6A2C8C
S11303907B2C8C2C9D2C20916400309165008091E5
S11303A076009091770040916000509161006091D7
S11303B06200709163002115310571F14F5F5F4F49
S11303C06F4F7F4F4031E7E25E076105710521F50C
S11303D0009721F08130910571F01AC0A09260005D
S11303E0B0926100C0926200D0926300F0927700F4
S11303F0E092760022C0A0926000B0926100C092A8
S11304006200D0926300D0937700C093760023C03B
S1130410462D572D682D792D83309105A1F0853017
S11304209105F9F08230910531F6409360005093C4
S113043061006093620070936300E7DE10937700BD
S113044000937600A8CF40936000509361006093BE
S11304506200709363001ADF1092770010927600A6
S11304609ACF409360005093610060936200709350
S11304706300D0937700C09376008DCF0CD0C7C0B3
S1130480BFD040F0B6D030F021F45F3F19F098C0EF
S11304905111F1C09BC0CCD098F39923C9F35523D3
S11304A0B1F3951B550BBB27AA2762177307840763
S11304B038F09F5F5F4F220F331F441FAA1FA9F319
S11304C033D00E2E3AF0E0E830D091505040E6950B
S11304D0001CCAF729D0FE2F27D0660F771F881F6C
S11304E0BB1F261737074807AB07B0E809F0BB0B5B
S11304F0802DBF01FF2793585F4F2AF09E3F51057F
S113050068F05EC0B8C05F3FECF3983EDCF38695BC
S113051077956795B795F7959F5FC9F7880F911DF4
S11305209695879597F90895E1E0660F771F881FE0
S1130530BB1F621773078407BA0720F0621B730B93
S1130540840BBA0BEE1F88F7E0950895BEE304D040
S113055008F490E80895BFE322273327A90170D057
S113056058F19F5740F1B91738F1BFE3B91B9927E8
S1130570B8503AF4660F771F881F991FB395D2F3CA
S113058016C0B8504AF0232F342F452F562F672F0B
S1130590782F8827B850BAF7B85F49F086957795D1
S11305A067955795479537952795BA95B9F70EF4FA
S11305B010D088940895889460E070E0CB01089589
S11305C097F99F6780E870E060E008959FEF80EC02
S11305D008959095809570956095509540953095C7
S11305E021953F4F4F4F5F4F6F4F7F4F8F4F9F4F1F
S11305F0089500240A941616170618060906089585
S113060000240A9412161306140605060895092EEA
S11306100394000C11F4882352F0BB0F40F4BF2B59
S113062011F460FF04C06F5F7F4F8F4F9F4F089599
S113063057FD9058440F551F59F05F3F71F047958F
S1130640880F97FB991F61F09F3F79F08795089574
S1130650121613061406551FF2CF4695F1DF08C093
S1130660161617061806991FF1CF869571056105B0
S113067008940895E894BB2766277727CB0197F958
S113068008950024A7FD00942A0F301D401D501D1D
S1130690601D701D801D901D08950024A7FD009409
S11306A02A17300540055005600570058005900542
S10906B00895F894FFCF49
S9030000FC
